{
  "contractName": "ProofOfExperiment",
  "abi": [
    {
      "inputs": [],
      "stateMutability": "nonpayable",
      "type": "constructor"
    },
    {
      "anonymous": false,
      "inputs": [
        {
          "indexed": true,
          "internalType": "uint256",
          "name": "experimentId",
          "type": "uint256"
        },
        {
          "indexed": false,
          "internalType": "bytes32",
          "name": "experimentProof",
          "type": "bytes32"
        }
      ],
      "name": "ProofCreated",
      "type": "event"
    },
    {
      "anonymous": false,
      "inputs": [
        {
          "indexed": true,
          "internalType": "uint256",
          "name": "experimentId",
          "type": "uint256"
        },
        {
          "indexed": false,
          "internalType": "bytes32",
          "name": "experimentProof",
          "type": "bytes32"
        }
      ],
      "name": "ProofValidated",
      "type": "event"
    },
    {
      "inputs": [],
      "name": "owner",
      "outputs": [
        {
          "internalType": "address",
          "name": "",
          "type": "address"
        }
      ],
      "stateMutability": "view",
      "type": "function",
      "constant": true
    },
    {
      "inputs": [
        {
          "internalType": "uint256",
          "name": "experimentId",
          "type": "uint256"
        },
        {
          "internalType": "bytes32",
          "name": "experimentProof",
          "type": "bytes32"
        }
      ],
      "name": "storeProof",
      "outputs": [],
      "stateMutability": "nonpayable",
      "type": "function"
    },
    {
      "inputs": [
        {
          "internalType": "uint256",
          "name": "_experimentId",
          "type": "uint256"
        },
        {
          "internalType": "bytes32",
          "name": "_experimentProof",
          "type": "bytes32"
        }
      ],
      "name": "verifyProofIsValid",
      "outputs": [
        {
          "internalType": "bool",
          "name": "",
          "type": "bool"
        }
      ],
      "stateMutability": "nonpayable",
      "type": "function"
    },
    {
      "inputs": [
        {
          "internalType": "uint256",
          "name": "_rep",
          "type": "uint256"
        },
        {
          "internalType": "address",
          "name": "_address",
          "type": "address"
        }
      ],
      "name": "setReputationByAddress",
      "outputs": [],
      "stateMutability": "nonpayable",
      "type": "function"
    },
    {
      "inputs": [
        {
          "internalType": "address",
          "name": "_address",
          "type": "address"
        }
      ],
      "name": "getReputationByAddress",
      "outputs": [
        {
          "internalType": "uint256",
          "name": "",
          "type": "uint256"
        }
      ],
      "stateMutability": "view",
      "type": "function",
      "constant": true
    },
    {
      "inputs": [
        {
          "internalType": "address",
          "name": "_address",
          "type": "address"
        }
      ],
      "name": "getTokenBalanceByAddress",
      "outputs": [
        {
          "internalType": "uint256",
          "name": "",
          "type": "uint256"
        }
      ],
      "stateMutability": "view",
      "type": "function",
      "constant": true
    }
  ],
  "bytecode": "0x608060405234801561001057600080fd5b50336000806101000a81548173ffffffffffffffffffffffffffffffffffffffff021916908373ffffffffffffffffffffffffffffffffffffffff160217905550610aac806100606000396000f3fe608060405234801561001057600080fd5b50600436106100625760003560e01c806339e4ea631461006757806381cd58f8146100975780638da5cb5b146100c7578063945ec5ac146100e5578063ff3739ba14610115578063ff59220c14610131575b600080fd5b610081600480360381019061007c9190610625565b61014d565b60405161008e91906108e5565b60405180910390f35b6100b160048036038101906100ac9190610625565b610196565b6040516100be91906108e5565b60405180910390f35b6100cf6101df565b6040516100dc9190610834565b60405180910390f35b6100ff60048036038101906100fa919061068a565b610203565b60405161010c919061084f565b60405180910390f35b61012f600480360381019061012a919061068a565b610444565b005b61014b6004803603810190610146919061064e565b6104f0565b005b6000600360008373ffffffffffffffffffffffffffffffffffffffff1673ffffffffffffffffffffffffffffffffffffffff168152602001908152602001600020549050919050565b6000600260008373ffffffffffffffffffffffffffffffffffffffff1673ffffffffffffffffffffffffffffffffffffffff168152602001908152602001600020549050919050565b60008054906101000a900473ffffffffffffffffffffffffffffffffffffffff1681565b60008260006001600083815260200190815260200160002054141561025d576040517f08c379a000000000000000000000000000000000000000000000000000000000815260040161025490610885565b60405180910390fd5b61026784846105c6565b15610438576005600260003373ffffffffffffffffffffffffffffffffffffffff1673ffffffffffffffffffffffffffffffffffffffff16815260200190815260200160002054101561034a57600260003373ffffffffffffffffffffffffffffffffffffffff1673ffffffffffffffffffffffffffffffffffffffff1681526020019081526020016000206000815480929190610304906109b9565b9190505550837f25e69ff45f728c2798e82533b61b7a7f6238e4108507ded21b8f739acba7d9a284604051610339919061086a565b60405180910390a26001915061043d565b600260003373ffffffffffffffffffffffffffffffffffffffff1673ffffffffffffffffffffffffffffffffffffffff168152602001908152602001600020600081548092919061039a906109b9565b91905055506103e8600360003373ffffffffffffffffffffffffffffffffffffffff1673ffffffffffffffffffffffffffffffffffffffff16815260200190815260200160002060008282546103f09190610911565b92505081905550837f25e69ff45f728c2798e82533b61b7a7f6238e4108507ded21b8f739acba7d9a284604051610427919061086a565b60405180910390a26001915061043d565b600091505b5092915050565b81600060016000838152602001908152602001600020541461049b576040517f08c379a0000000000000000000000000000000000000000000000000000000008152600401610492906108c5565b60405180910390fd5b816001600085815260200190815260200160002081905550827ffbbf8dad2632e75bc114426ca0d629c0beb6c4531599e68d148c70fbb4ffae6f836040516104e3919061086a565b60405180910390a2505050565b60008054906101000a900473ffffffffffffffffffffffffffffffffffffffff1673ffffffffffffffffffffffffffffffffffffffff163373ffffffffffffffffffffffffffffffffffffffff161461057e576040517f08c379a0000000000000000000000000000000000000000000000000000000008152600401610575906108a5565b60405180910390fd5b81600260008373ffffffffffffffffffffffffffffffffffffffff1673ffffffffffffffffffffffffffffffffffffffff168152602001908152602001600020819055505050565b600081600160008581526020019081526020016000205414905092915050565b6000813590506105f581610a31565b92915050565b60008135905061060a81610a48565b92915050565b60008135905061061f81610a5f565b92915050565b60006020828403121561063757600080fd5b6000610645848285016105e6565b91505092915050565b6000806040838503121561066157600080fd5b600061066f85828601610610565b9250506020610680858286016105e6565b9150509250929050565b6000806040838503121561069d57600080fd5b60006106ab85828601610610565b92505060206106bc858286016105fb565b9150509250929050565b6106cf81610967565b82525050565b6106de81610979565b82525050565b6106ed81610985565b82525050565b6000610700602483610900565b91507f4e6f2070726f6f662065786973747320666f722074686973206578706572696d60008301527f656e742e000000000000000000000000000000000000000000000000000000006020830152604082019050919050565b6000610766602e83610900565b91507f4f6e6c79206f776e657220697320616c6c6f77656420746f206163636573732060008301527f746869732066756e6374696f6e2e0000000000000000000000000000000000006020830152604082019050919050565b60006107cc602b83610900565b91507f412070726f6f6620616c72656164792065786973747320666f7220746869732060008301527f6578706572696d656e742e0000000000000000000000000000000000000000006020830152604082019050919050565b61082e816109af565b82525050565b600060208201905061084960008301846106c6565b92915050565b600060208201905061086460008301846106d5565b92915050565b600060208201905061087f60008301846106e4565b92915050565b6000602082019050818103600083015261089e816106f3565b9050919050565b600060208201905081810360008301526108be81610759565b9050919050565b600060208201905081810360008301526108de816107bf565b9050919050565b60006020820190506108fa6000830184610825565b92915050565b600082825260208201905092915050565b600061091c826109af565b9150610927836109af565b9250827fffffffffffffffffffffffffffffffffffffffffffffffffffffffffffffffff0382111561095c5761095b610a02565b5b828201905092915050565b60006109728261098f565b9050919050565b60008115159050919050565b6000819050919050565b600073ffffffffffffffffffffffffffffffffffffffff82169050919050565b6000819050919050565b60006109c4826109af565b91507fffffffffffffffffffffffffffffffffffffffffffffffffffffffffffffffff8214156109f7576109f6610a02565b5b600182019050919050565b7f4e487b7100000000000000000000000000000000000000000000000000000000600052601160045260246000fd5b610a3a81610967565b8114610a4557600080fd5b50565b610a5181610985565b8114610a5c57600080fd5b50565b610a68816109af565b8114610a7357600080fd5b5056fea26469706673582212205cfa3b07c27184e638c2e7df53f67ecd4b56e0dc3df5babfa752ac2a47f69fbd64736f6c63430008000033",
  "immutableReferences": {},
  "source": "//SPDX-License-Identifier: MIT\npragma solidity  >=0.6.0 <0.9.0;\n\ncontract ProofOfExperiment {\n\n    event ProofCreated(uint256 indexed experimentId, bytes32 experimentProof);\n    event ProofValidated(uint256 indexed experimentId, bytes32 experimentProof);\n\n    address public owner;\n    mapping(uint256 => bytes32) proofsById;\n    mapping(address => uint256) reputationByAddress;  //care -- 256 overflow\n    mapping(address => uint256) tokenBalanceByAddress;  //care -- 256 overflow\n\n    modifier onlyOwner() {\n        require( msg.sender == owner, \"Only owner is allowed to access this function.\" );\n        _;\n    }\n\n    modifier noProofExistsYet(uint256 experimentId) {\n        require(proofsById[experimentId] == \"\", \"A proof already exists for this experiment.\");\n        _;\n    }\n\n    modifier proofAlreadyExists(uint256 experimentId) {\n        require(proofsById[experimentId] != \"\", \"No proof exists for this experiment.\");\n        _;\n    }\n\n    constructor() {\n        owner = msg.sender;\n    }\n\n    function storeProof(uint256 experimentId, bytes32 experimentProof) public noProofExistsYet(experimentId)\n    {\n        proofsById[experimentId] = experimentProof;\n        emit ProofCreated(experimentId, experimentProof);\n    }\n\n    function isProofValid(uint256 experimentId, bytes32 experimentProof) private view returns (bool)\n    {\n        return proofsById[experimentId] == experimentProof;\n    }\n\n    function verifyProofIsValid(uint _experimentId, bytes32 _experimentProof) public proofAlreadyExists(_experimentId) returns (bool)\n    {\n        // we know that a proof already exists, now we need to validate that the one supplied is the correct one\n        if(isProofValid(_experimentId, _experimentProof)) {\n            // if rep < 5 then rep ++ and return\n            if(reputationByAddress[msg.sender] < 5) {\n                reputationByAddress[msg.sender]++;\n                emit ProofValidated(_experimentId, _experimentProof);\n                return true;\n            }\n            else {\n                reputationByAddress[msg.sender]++;\n                //mint Fleming Token rewards.\n                tokenBalanceByAddress[msg.sender] += 1000;\n                emit ProofValidated(_experimentId, _experimentProof);\n                return true;\n            }\n        }\n        else {\n            return false;\n        }\n    }\n\n    function setReputationByAddress(uint256 _rep, address _address) onlyOwner public {\n        reputationByAddress[_address] = _rep;\n    }\n\n    function getReputationByAddress(address _address) public view returns (uint256) {\n        return reputationByAddress[_address];\n    }\n\n    function getTokenBalanceByAddress(address _address) public view returns (uint256) {\n        return tokenBalanceByAddress[_address];\n    }\n\n    /* // check if a document has been notarized\n     function checkDocument(bytes32 document) view public returns (bool) {\n         bytes32 proof = proofFor(document);\n         return hasProof(proof);\n     }\n\n     // helper function to get a document's sha256\n     function proofFor(bytes32 document) view public returns (bytes32) {\n         return sha256(abi.encode(document));\n     }\n\n     // returns true if proof is stored\n     function hasProof(bytes32 proof) view public returns(bool) {\n         //TypeError: Type bytes memory is not implicitly convertible to expected type uint256.\n         return hashesById[abi.encode(proof)];\n     }*/\n\n}",
  "sourcePath": "/Users/thomasmoran/Hacking/Ethereum/Fleming/FlemingMVP/contracts/ProofOfExperiment.sol",
  "compiler": {
    "name": "solc",
    "version": "0.8.0+commit.c7dfd78e.Emscripten.clang"
  },
  "schemaVersion": "3.4.4",
  "updatedAt": "2022-01-20T18:12:29.792Z",
  "networkType": "ethereum",
  "devdoc": {
    "kind": "dev",
    "methods": {},
    "version": 1
  },
  "userdoc": {
    "kind": "user",
    "methods": {},
    "version": 1
  }
}