{
  "contractName": "TrialsAPIConsumer",
  "abi": [
    {
      "inputs": [],
      "stateMutability": "nonpayable",
      "type": "constructor"
    },
    {
      "anonymous": false,
      "inputs": [
        {
          "indexed": true,
          "internalType": "bytes32",
          "name": "id",
          "type": "bytes32"
        }
      ],
      "name": "ChainlinkCancelled",
      "type": "event"
    },
    {
      "anonymous": false,
      "inputs": [
        {
          "indexed": true,
          "internalType": "bytes32",
          "name": "id",
          "type": "bytes32"
        }
      ],
      "name": "ChainlinkFulfilled",
      "type": "event"
    },
    {
      "anonymous": false,
      "inputs": [
        {
          "indexed": true,
          "internalType": "bytes32",
          "name": "id",
          "type": "bytes32"
        }
      ],
      "name": "ChainlinkRequested",
      "type": "event"
    },
    {
      "inputs": [],
      "name": "numTrials",
      "outputs": [
        {
          "internalType": "uint256",
          "name": "",
          "type": "uint256"
        }
      ],
      "stateMutability": "view",
      "type": "function"
    },
    {
      "inputs": [],
      "name": "studyFields",
      "outputs": [
        {
          "internalType": "string",
          "name": "",
          "type": "string"
        }
      ],
      "stateMutability": "view",
      "type": "function"
    },
    {
      "inputs": [],
      "name": "testBytes",
      "outputs": [
        {
          "internalType": "string",
          "name": "",
          "type": "string"
        }
      ],
      "stateMutability": "view",
      "type": "function"
    },
    {
      "inputs": [],
      "name": "testString",
      "outputs": [
        {
          "internalType": "string",
          "name": "",
          "type": "string"
        }
      ],
      "stateMutability": "view",
      "type": "function"
    },
    {
      "inputs": [],
      "name": "requestNumTrials",
      "outputs": [
        {
          "internalType": "bytes32",
          "name": "requestId",
          "type": "bytes32"
        }
      ],
      "stateMutability": "nonpayable",
      "type": "function"
    },
    {
      "inputs": [],
      "name": "requestTrialData",
      "outputs": [
        {
          "internalType": "bytes32",
          "name": "requestId",
          "type": "bytes32"
        }
      ],
      "stateMutability": "nonpayable",
      "type": "function"
    },
    {
      "inputs": [
        {
          "internalType": "bytes32",
          "name": "_requestId",
          "type": "bytes32"
        },
        {
          "internalType": "uint256",
          "name": "_numTrials",
          "type": "uint256"
        }
      ],
      "name": "fulfill",
      "outputs": [],
      "stateMutability": "nonpayable",
      "type": "function"
    },
    {
      "inputs": [
        {
          "internalType": "bytes32",
          "name": "_requestId",
          "type": "bytes32"
        },
        {
          "internalType": "bytes32",
          "name": "_studyFields",
          "type": "bytes32"
        }
      ],
      "name": "fulfillData",
      "outputs": [],
      "stateMutability": "nonpayable",
      "type": "function"
    },
    {
      "inputs": [
        {
          "internalType": "bytes32",
          "name": "_bytes32",
          "type": "bytes32"
        }
      ],
      "name": "bytes32ToString",
      "outputs": [
        {
          "internalType": "string",
          "name": "",
          "type": "string"
        }
      ],
      "stateMutability": "pure",
      "type": "function"
    }
  ],
  "bytecode": "0x608060405260016004556040518060400160405280600881526020017f6120737472696e67000000000000000000000000000000000000000000000000815250600890805190602001906200005692919062000212565b50600860099080546200006990620003d1565b62000076929190620002a3565b503480156200008457600080fd5b50620000956200012660201b60201c565b73c57b33452b4f7bb189bb5afae9cc4aba1f7a4fd8600a60006101000a81548173ffffffffffffffffffffffffffffffffffffffff021916908373ffffffffffffffffffffffffffffffffffffffff1602179055507f6435323730643163333131393431643062303862656164323166656137373437600b8190555067016345785d8a0000600c8190555062000450565b620001cc73c89bd4e1632d3a43cb03aaad5262cbe4038bc57173ffffffffffffffffffffffffffffffffffffffff166338cc48316040518163ffffffff1660e01b815260040160206040518083038186803b1580156200018557600080fd5b505afa1580156200019a573d6000803e3d6000fd5b505050506040513d601f19601f82011682018060405250810190620001c0919062000371565b620001ce60201b60201c565b565b80600260006101000a81548173ffffffffffffffffffffffffffffffffffffffff021916908373ffffffffffffffffffffffffffffffffffffffff16021790555050565b8280546200022090620003d1565b90600052602060002090601f01602090048101928262000244576000855562000290565b82601f106200025f57805160ff191683800117855562000290565b8280016001018555821562000290579182015b828111156200028f57825182559160200191906001019062000272565b5b5090506200029f91906200033b565b5090565b828054620002b190620003d1565b90600052602060002090601f016020900481019282620002d5576000855562000328565b82601f10620002e8578054855562000328565b828001600101855582156200032857600052602060002091601f016020900482015b82811115620003275782548255916001019190600101906200030a565b5b5090506200033791906200033b565b5090565b5b80821115620003565760008160009055506001016200033c565b5090565b6000815190506200036b8162000436565b92915050565b6000602082840312156200038457600080fd5b600062000394848285016200035a565b91505092915050565b6000620003aa82620003b1565b9050919050565b600073ffffffffffffffffffffffffffffffffffffffff82169050919050565b60006002820490506001821680620003ea57607f821691505b6020821081141562000401576200040062000407565b5b50919050565b7f4e487b7100000000000000000000000000000000000000000000000000000000600052602260045260246000fd5b62000441816200039d565b81146200044d57600080fd5b50565b61205d80620004606000396000f3fe608060405234801561001057600080fd5b50600436106100935760003560e01c8063d5aedd3311610066578063d5aedd3314610120578063e00746fa1461013e578063ecd829bb1461015c578063f156601f14610178578063fb8f0f591461019657610093565b80634357855e1461009857806354b9aa34146100b45780637ae60ba0146100d25780639201de55146100f0575b600080fd5b6100b260048036038101906100ad919061165f565b6101b4565b005b6100bc6102c5565b6040516100c99190611932565b60405180910390f35b6100da6103f4565b6040516100e7919061194d565b60405180910390f35b61010a600480360381019061010591906115fa565b610482565b604051610117919061194d565b60405180910390f35b6101286106db565b604051610135919061194d565b60405180910390f35b610146610769565b60405161015391906119af565b60405180910390f35b61017660048036038101906101719190611623565b61076f565b005b610180610898565b60405161018d9190611932565b60405180910390f35b61019e610a02565b6040516101ab919061194d565b60405180910390f35b816005600082815260200190815260200160002060009054906101000a900473ffffffffffffffffffffffffffffffffffffffff1673ffffffffffffffffffffffffffffffffffffffff163373ffffffffffffffffffffffffffffffffffffffff1614610256576040517f08c379a000000000000000000000000000000000000000000000000000000000815260040161024d9061198f565b60405180910390fd5b6005600082815260200190815260200160002060006101000a81549073ffffffffffffffffffffffffffffffffffffffff0219169055807f7cc135e0cebb02c3480ae5d74d377283180a2601f8f644edf7987b009316c63a60405160405180910390a281600681905550505050565b6000806102dc600b543063ecd829bb60e01b610a90565b90506103406040518060400160405280600381526020017f67657400000000000000000000000000000000000000000000000000000000008152506040518060a0016040528060778152602001611f906077913983610ac19092919063ffffffff16565b6103bf6040518060400160405280600481526020017f70617468000000000000000000000000000000000000000000000000000000008152506040518060400160405280601b81526020017f53747564794669656c6473526573706f6e73652c44617461567273000000000081525083610ac19092919063ffffffff16565b6103ee600a60009054906101000a900473ffffffffffffffffffffffffffffffffffffffff1682600c54610af4565b91505090565b6007805461040190611dd7565b80601f016020809104026020016040519081016040528092919081815260200182805461042d90611dd7565b801561047a5780601f1061044f5761010080835404028352916020019161047a565b820191906000526020600020905b81548152906001019060200180831161045d57829003601f168201915b505050505081565b606060005b60208160ff161080156104ff5750600060f81b838260ff16602081106104d6577f4e487b7100000000000000000000000000000000000000000000000000000000600052603260045260246000fd5b1a60f81b7effffffffffffffffffffffffffffffffffffffffffffffffffffffffffffff191614155b1561051757808061050f90611e09565b915050610487565b60008160ff1667ffffffffffffffff81111561055c577f4e487b7100000000000000000000000000000000000000000000000000000000600052604160045260246000fd5b6040519080825280601f01601f19166020018201604052801561058e5781602001600182028036833780820191505090505b509050600091505b60208260ff1610801561060e5750600060f81b848360ff16602081106105e5577f4e487b7100000000000000000000000000000000000000000000000000000000600052603260045260246000fd5b1a60f81b7effffffffffffffffffffffffffffffffffffffffffffffffffffffffffffff191614155b156106d157838260ff166020811061064f577f4e487b7100000000000000000000000000000000000000000000000000000000600052603260045260246000fd5b1a60f81b818360ff168151811061068f577f4e487b7100000000000000000000000000000000000000000000000000000000600052603260045260246000fd5b60200101907effffffffffffffffffffffffffffffffffffffffffffffffffffffffffffff1916908160001a90535081806106c990611e09565b925050610596565b8092505050919050565b600980546106e890611dd7565b80601f016020809104026020016040519081016040528092919081815260200182805461071490611dd7565b80156107615780601f1061073657610100808354040283529160200191610761565b820191906000526020600020905b81548152906001019060200180831161074457829003601f168201915b505050505081565b60065481565b816005600082815260200190815260200160002060009054906101000a900473ffffffffffffffffffffffffffffffffffffffff1673ffffffffffffffffffffffffffffffffffffffff163373ffffffffffffffffffffffffffffffffffffffff1614610811576040517f08c379a00000000000000000000000000000000000000000000000000000000081526004016108089061198f565b60405180910390fd5b6005600082815260200190815260200160002060006101000a81549073ffffffffffffffffffffffffffffffffffffffff0219169055807f7cc135e0cebb02c3480ae5d74d377283180a2601f8f644edf7987b009316c63a60405160405180910390a261087d82610482565b60079080519060200190610892929190611468565b50505050565b6000806108af600b5430634357855e60e01b610a90565b90506109136040518060400160405280600381526020017f67657400000000000000000000000000000000000000000000000000000000008152506040518060a0016040528060778152602001611f906077913983610ac19092919063ffffffff16565b6109756040518060400160405280600481526020017f70617468000000000000000000000000000000000000000000000000000000008152506040518060600160405280602181526020016120076021913983610ac19092919063ffffffff16565b6000670de0b6b3a764000090506109cc6040518060400160405280600581526020017f74696d65730000000000000000000000000000000000000000000000000000008152508284610bc09092919063ffffffff16565b6109fb600a60009054906101000a900473ffffffffffffffffffffffffffffffffffffffff1683600c54610af4565b9250505090565b60088054610a0f90611dd7565b80601f0160208091040260200160405190810160405280929190818152602001828054610a3b90611dd7565b8015610a885780601f10610a5d57610100808354040283529160200191610a88565b820191906000526020600020905b815481529060010190602001808311610a6b57829003601f168201915b505050505081565b610a986114ee565b610aa06114ee565b610ab785858584610bf3909392919063ffffffff16565b9150509392505050565b610ad8828460800151610ca390919063ffffffff16565b610aef818460800151610ca390919063ffffffff16565b505050565b6000806004549050600181610b099190611a02565b6004819055506000634042994660e01b60008087600001513089604001518760018c6080015160000151604051602401610b4a98979695949392919061186f565b604051602081830303815290604052907bffffffffffffffffffffffffffffffffffffffffffffffffffffffff19166020820180517bffffffffffffffffffffffffffffffffffffffffffffffffffffffff83818316178352505050509050610bb586838684610cc8565b925050509392505050565b610bd7828460800151610ca390919063ffffffff16565b610bee818460800151610e6c90919063ffffffff16565b505050565b610bfb6114ee565b610c0b8560800151610100610f19565b508385600001818152505082856020019073ffffffffffffffffffffffffffffffffffffffff16908173ffffffffffffffffffffffffffffffffffffffff16815250508185604001907bffffffffffffffffffffffffffffffffffffffffffffffffffffffff191690817bffffffffffffffffffffffffffffffffffffffffffffffffffffffff191681525050849050949350505050565b610cb08260038351610f83565b610cc3818361110890919063ffffffff16565b505050565b60003084604051602001610cdd929190611843565b604051602081830303815290604052805190602001209050846005600083815260200190815260200160002060006101000a81548173ffffffffffffffffffffffffffffffffffffffff021916908373ffffffffffffffffffffffffffffffffffffffff160217905550807fb5e6e01e79f91267dc17b4e6314d5d4d03593d2ceee0fbb452b750bd70ea5af960405160405180910390a2600260009054906101000a900473ffffffffffffffffffffffffffffffffffffffff1673ffffffffffffffffffffffffffffffffffffffff16634000aea08685856040518463ffffffff1660e01b8152600401610dd3939291906118f4565b602060405180830381600087803b158015610ded57600080fd5b505af1158015610e01573d6000803e3d6000fd5b505050506040513d601f19601f82011682018060405250810190610e2591906115d1565b610e64576040517f08c379a0000000000000000000000000000000000000000000000000000000008152600401610e5b9061196f565b60405180910390fd5b949350505050565b7fffffffffffffffffffffffffffffffffffffffffffffffff0000000000000000811215610ea357610e9e828261112a565b610f15565b67ffffffffffffffff811315610ec257610ebd82826111a1565b610f14565b60008112610edb57610ed682600083610f83565b610f13565b610f12826001837fffffffffffffffffffffffffffffffffffffffffffffffffffffffffffffffff610f0d9190611c23565b610f83565b5b5b5b5050565b610f2161155b565b6000602083610f309190611e61565b14610f5c57602082610f429190611e61565b6020610f4e9190611cb7565b82610f599190611a02565b91505b81836020018181525050604051808452600081528281016020016040525082905092915050565b60178167ffffffffffffffff1611610fba57610fb48160058460ff16901b60ff1617846111ed90919063ffffffff16565b50611103565b60ff8167ffffffffffffffff161161101057610fe9601860058460ff16901b17846111ed90919063ffffffff16565b5061100a8167ffffffffffffffff1660018561120d9092919063ffffffff16565b50611102565b61ffff8167ffffffffffffffff161161106757611040601960058460ff16901b17846111ed90919063ffffffff16565b506110618167ffffffffffffffff1660028561120d9092919063ffffffff16565b50611101565b63ffffffff8167ffffffffffffffff16116110c057611099601a60058460ff16901b17846111ed90919063ffffffff16565b506110ba8167ffffffffffffffff1660048561120d9092919063ffffffff16565b50611100565b6110dd601b60058460ff16901b17846111ed90919063ffffffff16565b506110fe8167ffffffffffffffff1660088561120d9092919063ffffffff16565b505b5b5b5b505050565b61111061155b565b6111228384600001515184855161122f565b905092915050565b61114860036005600660ff16901b17836111ed90919063ffffffff16565b5061119d82827fffffffffffffffffffffffffffffffffffffffffffffffffffffffffffffffff6111799190611c23565b60405160200161118991906119af565b60405160208183030381529060405261131e565b5050565b6111bf60026005600660ff16901b17836111ed90919063ffffffff16565b506111e982826040516020016111d591906119af565b60405160208183030381529060405261131e565b5050565b6111f561155b565b6112058384600001515184611343565b905092915050565b61121561155b565b61122684856000015151858561139a565b90509392505050565b61123761155b565b825182111561124557600080fd5b846020015182856112569190611a02565b111561128b5761128a85600261127b886020015188876112769190611a02565b611428565b6112859190611bc9565b611444565b5b6000808651805187602083010193508088870111156112aa5787860182525b60208701925050505b602084106112f157805182526020826112cc9190611a02565b91506020816112db9190611a02565b90506020846112ea9190611cb7565b93506112b3565b60006001856020036101000a03905080198251168184511681811785525050508692505050949350505050565b61132b8260028351610f83565b61133e818361110890919063ffffffff16565b505050565b61134b61155b565b8360200151831061137157611370846002866020015161136b9190611bc9565b611444565b5b835180516020858301018481538186141561138d576001820183525b5050508390509392505050565b6113a261155b565b846020015184836113b39190611a02565b11156113db576113da85600286856113cb9190611a02565b6113d59190611bc9565b611444565b5b60006001836101006113ed9190611aab565b6113f79190611cb7565b9050855183868201018583198251161781528151858801111561141a5784870182525b505085915050949350505050565b60008183111561143a5782905061143e565b8190505b92915050565b6000826000015190506114578383610f19565b506114628382611108565b50505050565b82805461147490611dd7565b90600052602060002090601f01602090048101928261149657600085556114dd565b82601f106114af57805160ff19168380011785556114dd565b828001600101855582156114dd579182015b828111156114dc5782518255916020019190600101906114c1565b5b5090506114ea9190611575565b5090565b6040518060a0016040528060008019168152602001600073ffffffffffffffffffffffffffffffffffffffff16815260200160007bffffffffffffffffffffffffffffffffffffffffffffffffffffffff191681526020016000815260200161155561155b565b81525090565b604051806040016040528060608152602001600081525090565b5b8082111561158e576000816000905550600101611576565b5090565b6000815190506115a181611f4a565b92915050565b6000813590506115b681611f61565b92915050565b6000813590506115cb81611f78565b92915050565b6000602082840312156115e357600080fd5b60006115f184828501611592565b91505092915050565b60006020828403121561160c57600080fd5b600061161a848285016115a7565b91505092915050565b6000806040838503121561163657600080fd5b6000611644858286016115a7565b9250506020611655858286016115a7565b9150509250929050565b6000806040838503121561167257600080fd5b6000611680858286016115a7565b9250506020611691858286016115bc565b9150509250929050565b6116a481611ceb565b82525050565b6116b381611d09565b82525050565b6116c281611d13565b82525050565b60006116d3826119ca565b6116dd81856119e0565b93506116ed818560208601611da4565b6116f681611f1f565b840191505092915050565b61171261170d82611d80565b611e33565b82525050565b6000611723826119d5565b61172d81856119f1565b935061173d818560208601611da4565b61174681611f1f565b840191505092915050565b600061175e6023836119f1565b91507f756e61626c6520746f207472616e73666572416e6443616c6c20746f206f726160008301527f636c6500000000000000000000000000000000000000000000000000000000006020830152604082019050919050565b60006117c46028836119f1565b91507f536f75726365206d75737420626520746865206f7261636c65206f662074686560008301527f20726571756573740000000000000000000000000000000000000000000000006020830152604082019050919050565b61182681611d69565b82525050565b61183d61183882611d69565b611e57565b82525050565b600061184f8285611701565b60148201915061185f828461182c565b6020820191508190509392505050565b600061010082019050611885600083018b61169b565b611892602083018a61181d565b61189f60408301896116aa565b6118ac606083018861169b565b6118b960808301876116b9565b6118c660a083018661181d565b6118d360c083018561181d565b81810360e08301526118e581846116c8565b90509998505050505050505050565b6000606082019050611909600083018661169b565b611916602083018561181d565b818103604083015261192881846116c8565b9050949350505050565b600060208201905061194760008301846116aa565b92915050565b600060208201905081810360008301526119678184611718565b905092915050565b6000602082019050818103600083015261198881611751565b9050919050565b600060208201905081810360008301526119a8816117b7565b9050919050565b60006020820190506119c4600083018461181d565b92915050565b600081519050919050565b600081519050919050565b600082825260208201905092915050565b600082825260208201905092915050565b6000611a0d82611d69565b9150611a1883611d69565b9250827fffffffffffffffffffffffffffffffffffffffffffffffffffffffffffffffff03821115611a4d57611a4c611e92565b5b828201905092915050565b6000808291508390505b6001851115611aa257808604811115611a7e57611a7d611e92565b5b6001851615611a8d5780820291505b8081029050611a9b85611f3d565b9450611a62565b94509492505050565b6000611ab682611d69565b9150611ac183611d69565b9250611aee7fffffffffffffffffffffffffffffffffffffffffffffffffffffffffffffffff8484611af6565b905092915050565b600082611b065760019050611bc2565b81611b145760009050611bc2565b8160018114611b2a5760028114611b3457611b63565b6001915050611bc2565b60ff841115611b4657611b45611e92565b5b8360020a915084821115611b5d57611b5c611e92565b5b50611bc2565b5060208310610133831016604e8410600b8410161715611b985782820a905083811115611b9357611b92611e92565b5b611bc2565b611ba58484846001611a58565b92509050818404811115611bbc57611bbb611e92565b5b81810290505b9392505050565b6000611bd482611d69565b9150611bdf83611d69565b9250817fffffffffffffffffffffffffffffffffffffffffffffffffffffffffffffffff0483118215151615611c1857611c17611e92565b5b828202905092915050565b6000611c2e82611d3f565b9150611c3983611d3f565b9250827f800000000000000000000000000000000000000000000000000000000000000001821260008412151615611c7457611c73611e92565b5b827f7fffffffffffffffffffffffffffffffffffffffffffffffffffffffffffffff018213600084121615611cac57611cab611e92565b5b828203905092915050565b6000611cc282611d69565b9150611ccd83611d69565b925082821015611ce057611cdf611e92565b5b828203905092915050565b6000611cf682611d49565b9050919050565b60008115159050919050565b6000819050919050565b60007fffffffff0000000000000000000000000000000000000000000000000000000082169050919050565b6000819050919050565b600073ffffffffffffffffffffffffffffffffffffffff82169050919050565b6000819050919050565b600060ff82169050919050565b6000611d8b82611d92565b9050919050565b6000611d9d82611d49565b9050919050565b60005b83811015611dc2578082015181840152602081019050611da7565b83811115611dd1576000848401525b50505050565b60006002820490506001821680611def57607f821691505b60208210811415611e0357611e02611ef0565b5b50919050565b6000611e1482611d73565b915060ff821415611e2857611e27611e92565b5b600182019050919050565b6000611e3e82611e45565b9050919050565b6000611e5082611f30565b9050919050565b6000819050919050565b6000611e6c82611d69565b9150611e7783611d69565b925082611e8757611e86611ec1565b5b828206905092915050565b7f4e487b7100000000000000000000000000000000000000000000000000000000600052601160045260246000fd5b7f4e487b7100000000000000000000000000000000000000000000000000000000600052601260045260246000fd5b7f4e487b7100000000000000000000000000000000000000000000000000000000600052602260045260246000fd5b6000601f19601f8301169050919050565b60008160601b9050919050565b60008160011c9050919050565b611f5381611cfd565b8114611f5e57600080fd5b50565b611f6a81611d09565b8114611f7557600080fd5b50565b611f8181611d69565b8114611f8c57600080fd5b5056fe68747470733a2f2f636c696e6963616c747269616c732e676f762f6170692f71756572792f73747564795f6669656c64733f657870723d617374686d61266669656c64733d5072696d6172794f7574636f6d654d656173757265266d696e5f726e6b3d32266d61785f726e6b3d3226666d743d6a736f6e53747564794669656c6473526573706f6e73652c4e53747564696573417661696ca26469706673582212208ac3ddc7a35cecb97ffeb69395d919369d616e4872aa28d394eeb76aba70463f64736f6c63430008000033",
  "immutableReferences": {},
  "source": "// SPDX-License-Identifier: MIT\npragma solidity  >=0.6.0 <0.9.0;\n\nimport \"@chainlink/contracts/src/v0.8/ChainlinkClient.sol\";\n\n/**\n * Request testnet LINK and ETH here: https://faucets.chain.link/\n * Find information on LINK Token Contracts and get the latest ETH and LINK faucets here: https://docs.chain.link/docs/link-token-contracts/\n */\n\ncontract TrialsAPIConsumer is ChainlinkClient {\n    using Chainlink for Chainlink.Request;\n\n    uint256 public numTrials;\n    string public studyFields;\n    string public testString = \"a string\";\n    string public testBytes = string(testString);\n\n    address private oracle;\n    bytes32 private jobId;\n    uint256 private fee;\n\n    /**\n     * Network: Kovan\n     * Oracle: 0xc57B33452b4F7BB189bB5AfaE9cc4aBa1f7a4FD8 (Chainlink Devrel Node)\n     * Job ID: d5270d1c311941d0b08bead21fea7747\n     * Fee: 0.1 LINK\n     */\n    constructor() {\n        setPublicChainlinkToken();\n        oracle = 0xc57B33452b4F7BB189bB5AfaE9cc4aBa1f7a4FD8;\n        jobId = \"d5270d1c311941d0b08bead21fea7747\";\n        fee = 0.1 * 10 ** 18; // (Varies by network and job)\n    }\n\n    /**\n     * Create a Chainlink request to retrieve API response, find the target\n     * data, then multiply by 1000000000000000000 (to remove decimal places from data).\n     */\n    function requestNumTrials() public returns (bytes32 requestId)\n    {\n        Chainlink.Request memory request = buildChainlinkRequest(jobId, address(this), this.fulfill.selector);\n\n        // Set the URL to perform the GET request on\n        request.add(\"get\", \"https://clinicaltrials.gov/api/query/study_fields?expr=asthma&fields=PrimaryOutcomeMeasure&min_rnk=2&max_rnk=2&fmt=json\");\n\n        // Set the path to find the desired data in the API response\n        request.add(\"path\", \"StudyFieldsResponse,NStudiesAvail\"); // Chainlink nodes 1.0.0 and later support this format\n\n        // Multiply the result by 1000000000000000000 to remove decimals\n        int timesAmount = 10**18;\n        request.addInt(\"times\", timesAmount);\n\n        // Sends the request\n        return sendChainlinkRequestTo(oracle, request, fee);\n    }\n\n    function requestTrialData() public returns (bytes32 requestId)\n    {\n        Chainlink.Request memory request = buildChainlinkRequest(jobId, address(this), this.fulfillData.selector);\n\n        // Set the URL to perform the GET request on\n        request.add(\"get\", \"https://clinicaltrials.gov/api/query/study_fields?expr=asthma&fields=PrimaryOutcomeMeasure&min_rnk=2&max_rnk=2&fmt=json\");\n\n        // Set the path to find the desired data in the API response\n        request.add(\"path\", \"StudyFieldsResponse,DataVrs\"); // Chainlink nodes 1.0.0 and later support this format\n\n        // Sends the request\n        return sendChainlinkRequestTo(oracle, request, fee);\n    }\n\n    /**\n     * Receive the response in the form of uint256\n     */\n    function fulfill(bytes32 _requestId, uint256 _numTrials) public recordChainlinkFulfillment(_requestId)\n    {\n        numTrials = _numTrials;\n    }\n\n    /**\n     * Receive the response in the form of string\n     */\n    function fulfillData(bytes32 _requestId, bytes32 _studyFields) public recordChainlinkFulfillment(_requestId)\n    {\n        studyFields = bytes32ToString(_studyFields);\n    }\n\n    function bytes32ToString(bytes32 _bytes32) public pure returns (string memory) {\n        uint8 i = 0;\n        while(i < 32 && _bytes32[i] != 0) {\n            i++;\n        }\n        bytes memory bytesArray = new bytes(i);\n        for (i = 0; i < 32 && _bytes32[i] != 0; i++) {\n            bytesArray[i] = _bytes32[i];\n        }\n        return string(bytesArray);\n    }\n\n\n    // function withdrawLink() external {} - Implement a withdraw function to avoid locking your LINK in the contract\n}\n\n",
  "sourcePath": "/Users/thomasmoran/Hacking/Ethereum/Fleming/ChainlinkHackathon22/contracts/TrialsAPIConsumer.sol",
  "compiler": {
    "name": "solc",
    "version": "0.8.0+commit.c7dfd78e.Emscripten.clang"
  },
  "schemaVersion": "3.4.4",
  "updatedAt": "2022-05-03T07:19:26.555Z",
  "devdoc": {
    "kind": "dev",
    "methods": {},
    "version": 1
  },
  "userdoc": {
    "kind": "user",
    "methods": {
      "constructor": {
        "notice": "Network: Kovan Oracle: 0xc57B33452b4F7BB189bB5AfaE9cc4aBa1f7a4FD8 (Chainlink Devrel Node) Job ID: d5270d1c311941d0b08bead21fea7747 Fee: 0.1 LINK"
      },
      "fulfill(bytes32,uint256)": {
        "notice": "Receive the response in the form of uint256"
      },
      "fulfillData(bytes32,bytes32)": {
        "notice": "Receive the response in the form of string"
      },
      "requestNumTrials()": {
        "notice": "Create a Chainlink request to retrieve API response, find the target data, then multiply by 1000000000000000000 (to remove decimal places from data)."
      }
    },
    "notice": "Request testnet LINK and ETH here: https://faucets.chain.link/ Find information on LINK Token Contracts and get the latest ETH and LINK faucets here: https://docs.chain.link/docs/link-token-contracts/",
    "version": 1
  }
}