{
  "contractName": "Wallet",
  "abi": [
    {
      "inputs": [],
      "stateMutability": "nonpayable",
      "type": "constructor"
    },
    {
      "anonymous": false,
      "inputs": [
        {
          "indexed": false,
          "internalType": "uint256",
          "name": "",
          "type": "uint256"
        }
      ],
      "name": "Balance",
      "type": "event"
    },
    {
      "anonymous": false,
      "inputs": [
        {
          "indexed": true,
          "internalType": "address",
          "name": "_from",
          "type": "address"
        },
        {
          "indexed": true,
          "internalType": "address",
          "name": "_to",
          "type": "address"
        },
        {
          "indexed": false,
          "internalType": "uint256",
          "name": "_value",
          "type": "uint256"
        }
      ],
      "name": "Transfer",
      "type": "event"
    },
    {
      "inputs": [],
      "name": "deposit",
      "outputs": [],
      "stateMutability": "payable",
      "type": "function"
    },
    {
      "inputs": [],
      "name": "getContractBalanceOfEther",
      "outputs": [
        {
          "internalType": "uint256",
          "name": "",
          "type": "uint256"
        }
      ],
      "stateMutability": "nonpayable",
      "type": "function"
    },
    {
      "inputs": [
        {
          "internalType": "address",
          "name": "receiver",
          "type": "address"
        },
        {
          "internalType": "uint256",
          "name": "amount",
          "type": "uint256"
        }
      ],
      "name": "sendCoin",
      "outputs": [
        {
          "internalType": "bool",
          "name": "sufficient",
          "type": "bool"
        }
      ],
      "stateMutability": "nonpayable",
      "type": "function"
    },
    {
      "inputs": [
        {
          "internalType": "address",
          "name": "addr",
          "type": "address"
        }
      ],
      "name": "getBalance",
      "outputs": [
        {
          "internalType": "uint256",
          "name": "",
          "type": "uint256"
        }
      ],
      "stateMutability": "view",
      "type": "function"
    },
    {
      "inputs": [],
      "name": "getContractStorageBalance",
      "outputs": [
        {
          "internalType": "uint256",
          "name": "",
          "type": "uint256"
        }
      ],
      "stateMutability": "view",
      "type": "function"
    },
    {
      "inputs": [
        {
          "internalType": "uint256",
          "name": "x",
          "type": "uint256"
        }
      ],
      "name": "setContractStorageBalance",
      "outputs": [],
      "stateMutability": "nonpayable",
      "type": "function"
    },
    {
      "inputs": [
        {
          "internalType": "uint256",
          "name": "x",
          "type": "uint256"
        }
      ],
      "name": "incrementContractStorageBalance",
      "outputs": [],
      "stateMutability": "nonpayable",
      "type": "function"
    },
    {
      "inputs": [
        {
          "internalType": "uint256",
          "name": "amount",
          "type": "uint256"
        }
      ],
      "name": "save",
      "outputs": [],
      "stateMutability": "nonpayable",
      "type": "function"
    },
    {
      "inputs": [
        {
          "internalType": "uint256",
          "name": "amount",
          "type": "uint256"
        },
        {
          "internalType": "address",
          "name": "recipient",
          "type": "address"
        }
      ],
      "name": "spend",
      "outputs": [],
      "stateMutability": "nonpayable",
      "type": "function"
    },
    {
      "inputs": [],
      "name": "balanceOfDai",
      "outputs": [
        {
          "internalType": "uint256",
          "name": "",
          "type": "uint256"
        }
      ],
      "stateMutability": "view",
      "type": "function"
    }
  ],
  "bytecode": "0x6080604052736b175474e89094c44da98b954eedeac495271d0f600160006101000a81548173ffffffffffffffffffffffffffffffffffffffff021916908373ffffffffffffffffffffffffffffffffffffffff16021790555073c2cb1040220768554cf699b0d863a3cd4324ce32600260006101000a81548173ffffffffffffffffffffffffffffffffffffffff021916908373ffffffffffffffffffffffffffffffffffffffff1602179055503480156100ba57600080fd5b50336000806101000a81548173ffffffffffffffffffffffffffffffffffffffff021916908373ffffffffffffffffffffffffffffffffffffffff160217905550612710600560003273ffffffffffffffffffffffffffffffffffffffff1673ffffffffffffffffffffffffffffffffffffffff168152602001908152602001600020819055506110a6806101506000396000f3fe6080604052600436106100915760003560e01c80635782c343116100595780635782c343146101655780635d969ee41461019057806390b98a11146101bb578063d0e30db0146101f8578063f8b2cb4f1461020257610091565b80630ad9b788146100965780630f1d0a7b146100bf5780631b862027146100ea5780631e9f59db14610113578063209149001461013c575b600080fd5b3480156100a257600080fd5b506100bd60048036038101906100b89190610cf3565b61023f565b005b3480156100cb57600080fd5b506100d4610249565b6040516100e19190610ea4565b60405180910390f35b3480156100f657600080fd5b50610111600480360381019061010c9190610cf3565b610293565b005b34801561011f57600080fd5b5061013a60048036038101906101359190610d45565b610351565b005b34801561014857600080fd5b50610163600480360381019061015e9190610cf3565b610693565b005b34801561017157600080fd5b5061017a61069d565b6040516101879190610ea4565b60405180910390f35b34801561019c57600080fd5b506101a56106a7565b6040516101b29190610ea4565b60405180910390f35b3480156101c757600080fd5b506101e260048036038101906101dd9190610c8e565b61080e565b6040516101ef9190610e69565b60405180910390f35b61020061097c565b005b34801561020e57600080fd5b5061022960048036038101906102249190610c65565b610a9d565b6040516102369190610ea4565b60405180910390f35b8060038190555050565b6000476004819055507fe8d947d7ebdd7b8b8fa2ad2022c7591418ac32d8c29c5f8a8fc9de52ffa540926004546040516102839190610ea4565b60405180910390a1600454905090565b600160009054906101000a900473ffffffffffffffffffffffffffffffffffffffff1673ffffffffffffffffffffffffffffffffffffffff166323b872dd3330846040518463ffffffff1660e01b81526004016102f293929190610e09565b602060405180830381600087803b15801561030c57600080fd5b505af1158015610320573d6000803e3d6000fd5b505050506040513d601f19601f820116820180604052508101906103449190610cca565b5061034e81610aaf565b50565b60008054906101000a900473ffffffffffffffffffffffffffffffffffffffff1673ffffffffffffffffffffffffffffffffffffffff163373ffffffffffffffffffffffffffffffffffffffff16146103df576040517f08c379a00000000000000000000000000000000000000000000000000000000081526004016103d690610e84565b60405180910390fd5b6000600260009054906101000a900473ffffffffffffffffffffffffffffffffffffffff1673ffffffffffffffffffffffffffffffffffffffff166370a08231306040518263ffffffff1660e01b815260040161043c9190610dee565b60206040518083038186803b15801561045457600080fd5b505afa158015610468573d6000803e3d6000fd5b505050506040513d601f19601f8201168201806040525081019061048c9190610d1c565b9050600260009054906101000a900473ffffffffffffffffffffffffffffffffffffffff1673ffffffffffffffffffffffffffffffffffffffff16632e1a7d4d826040518263ffffffff1660e01b81526004016104e99190610ea4565b600060405180830381600087803b15801561050357600080fd5b505af1158015610517573d6000803e3d6000fd5b50505050600160009054906101000a900473ffffffffffffffffffffffffffffffffffffffff1673ffffffffffffffffffffffffffffffffffffffff1663a9059cbb83856040518363ffffffff1660e01b8152600401610578929190610e40565b602060405180830381600087803b15801561059257600080fd5b505af11580156105a6573d6000803e3d6000fd5b505050506040513d601f19601f820116820180604052508101906105ca9190610cca565b506000600160009054906101000a900473ffffffffffffffffffffffffffffffffffffffff1673ffffffffffffffffffffffffffffffffffffffff166370a08231306040518263ffffffff1660e01b81526004016106289190610dee565b60206040518083038186803b15801561064057600080fd5b505afa158015610654573d6000803e3d6000fd5b505050506040513d601f19601f820116820180604052508101906106789190610d1c565b9050600081111561068d5761068c81610aaf565b5b50505050565b8060038190555050565b6000600354905090565b600080600260009054906101000a900473ffffffffffffffffffffffffffffffffffffffff1673ffffffffffffffffffffffffffffffffffffffff166377c7b8fc6040518163ffffffff1660e01b815260040160206040518083038186803b15801561071257600080fd5b505afa158015610726573d6000803e3d6000fd5b505050506040513d601f19601f8201168201806040525081019061074a9190610d1c565b90506000600260009054906101000a900473ffffffffffffffffffffffffffffffffffffffff1673ffffffffffffffffffffffffffffffffffffffff166370a08231306040518263ffffffff1660e01b81526004016107a99190610dee565b60206040518083038186803b1580156107c157600080fd5b505afa1580156107d5573d6000803e3d6000fd5b505050506040513d601f19601f820116820180604052508101906107f99190610d1c565b905081816108079190610f26565b9250505090565b600081600560003373ffffffffffffffffffffffffffffffffffffffff1673ffffffffffffffffffffffffffffffffffffffff1681526020019081526020016000205410156108605760009050610976565b81600560003373ffffffffffffffffffffffffffffffffffffffff1673ffffffffffffffffffffffffffffffffffffffff16815260200190815260200160002060008282546108af9190610f80565b9250508190555081600560008573ffffffffffffffffffffffffffffffffffffffff1673ffffffffffffffffffffffffffffffffffffffff16815260200190815260200160002060008282546109059190610ed0565b925050819055508273ffffffffffffffffffffffffffffffffffffffff163373ffffffffffffffffffffffffffffffffffffffff167fddf252ad1be2c89b69c2b068fc378daa952ba7f163c4a11628f55a4df523b3ef846040516109699190610ea4565b60405180910390a3600190505b92915050565b346004600082825461098e9190610ed0565b9250508190555034600560003373ffffffffffffffffffffffffffffffffffffffff1673ffffffffffffffffffffffffffffffffffffffff16815260200190815260200160002060008282546109e49190610f80565b9250508190555034600560008060009054906101000a900473ffffffffffffffffffffffffffffffffffffffff1673ffffffffffffffffffffffffffffffffffffffff1673ffffffffffffffffffffffffffffffffffffffff1681526020019081526020016000206000828254610a5b9190610ed0565b925050819055507fe8d947d7ebdd7b8b8fa2ad2022c7591418ac32d8c29c5f8a8fc9de52ffa54092600454604051610a939190610ea4565b60405180910390a1565b6000610aa882610a9d565b9050919050565b600160009054906101000a900473ffffffffffffffffffffffffffffffffffffffff1673ffffffffffffffffffffffffffffffffffffffff1663095ea7b3600260009054906101000a900473ffffffffffffffffffffffffffffffffffffffff16836040518363ffffffff1660e01b8152600401610b2e929190610e40565b602060405180830381600087803b158015610b4857600080fd5b505af1158015610b5c573d6000803e3d6000fd5b505050506040513d601f19601f82011682018060405250810190610b809190610cca565b50600260009054906101000a900473ffffffffffffffffffffffffffffffffffffffff1673ffffffffffffffffffffffffffffffffffffffff1663b6b55f25826040518263ffffffff1660e01b8152600401610bdc9190610ea4565b600060405180830381600087803b158015610bf657600080fd5b505af1158015610c0a573d6000803e3d6000fd5b5050505050565b600081359050610c208161102b565b92915050565b600081519050610c3581611042565b92915050565b600081359050610c4a81611059565b92915050565b600081519050610c5f81611059565b92915050565b600060208284031215610c7757600080fd5b6000610c8584828501610c11565b91505092915050565b60008060408385031215610ca157600080fd5b6000610caf85828601610c11565b9250506020610cc085828601610c3b565b9150509250929050565b600060208284031215610cdc57600080fd5b6000610cea84828501610c26565b91505092915050565b600060208284031215610d0557600080fd5b6000610d1384828501610c3b565b91505092915050565b600060208284031215610d2e57600080fd5b6000610d3c84828501610c50565b91505092915050565b60008060408385031215610d5857600080fd5b6000610d6685828601610c3b565b9250506020610d7785828601610c11565b9150509250929050565b610d8a81610fb4565b82525050565b610d9981610fc6565b82525050565b6000610dac600a83610ebf565b91507f6f6e6c792061646d696e000000000000000000000000000000000000000000006000830152602082019050919050565b610de881610ff2565b82525050565b6000602082019050610e036000830184610d81565b92915050565b6000606082019050610e1e6000830186610d81565b610e2b6020830185610d81565b610e386040830184610ddf565b949350505050565b6000604082019050610e556000830185610d81565b610e626020830184610ddf565b9392505050565b6000602082019050610e7e6000830184610d90565b92915050565b60006020820190508181036000830152610e9d81610d9f565b9050919050565b6000602082019050610eb96000830184610ddf565b92915050565b600082825260208201905092915050565b6000610edb82610ff2565b9150610ee683610ff2565b9250827fffffffffffffffffffffffffffffffffffffffffffffffffffffffffffffffff03821115610f1b57610f1a610ffc565b5b828201905092915050565b6000610f3182610ff2565b9150610f3c83610ff2565b9250817fffffffffffffffffffffffffffffffffffffffffffffffffffffffffffffffff0483118215151615610f7557610f74610ffc565b5b828202905092915050565b6000610f8b82610ff2565b9150610f9683610ff2565b925082821015610fa957610fa8610ffc565b5b828203905092915050565b6000610fbf82610fd2565b9050919050565b60008115159050919050565b600073ffffffffffffffffffffffffffffffffffffffff82169050919050565b6000819050919050565b7f4e487b7100000000000000000000000000000000000000000000000000000000600052601160045260246000fd5b61103481610fb4565b811461103f57600080fd5b50565b61104b81610fc6565b811461105657600080fd5b50565b61106281610ff2565b811461106d57600080fd5b5056fea264697066735822122089a4e9288949bf24cd9b4291fcda8337a77fdfe77ea649db111222a94210e76164736f6c63430008000033",
  "immutableReferences": {},
  "source": "//SPDX-License-Identifier: MIT\npragma solidity  >=0.6.0 <0.9.0;\n\n//import '@openzeppelin/contracts/token/ERC20/IERC20.sol';\nimport '@openzeppelin/contracts/token/ERC20/IERC20.sol';\n//import \"https://github.com/OpenZeppelin/openzeppelin-contracts/blob/master/contracts/token/ERC20/ERC20.sol\";\n\ninterface IYDAI {\n  function deposit(uint _amount) external;\n  function withdraw(uint _shares) external;\n  function balanceOf(address account) external view returns(uint);\n  function getPricePerFullShare() external view returns(uint);\n}\n\ncontract Wallet {\n\n    address admin;\n\n    IERC20 dai = IERC20(0x6B175474E89094C44Da98b954EedeAC495271d0F);        // from etherscan\n    IYDAI yDai = IYDAI(0xC2cB1040220768554cf699b0d863A3cd4324ce32);         // from yearn finance registry\n\n    uint private contractStorageBalance;\n    uint contractBalanceOfEther;\n\n    mapping (address => uint) balances;\n\n    event Balance(uint);\n    event Transfer(address indexed _from, address indexed _to, uint256 _value);\n\n    constructor() public {\n        admin = msg.sender;                 //address that deployed the contract\n        balances[tx.origin] = 10000;\n    }\n\n    /*fallback() external payable  {\n        msg.sender.transfer(msg.value);      // safety refund if ether sent to this contract in error\n        // solidity has access to this global object msg - message metadata available whenever you call a function\n    }*/\n\n\n    function deposit() payable public {\n        //contractBalanceOfEther = getBalance(address(this));\n        //contractBalanceOfEther = address(this).balance;\n        contractBalanceOfEther += msg.value;\n        balances[msg.sender] -= msg.value;\n        balances[admin] += msg.value;\n        emit Balance(contractBalanceOfEther);\n    }\n\n    function getContractBalanceOfEther() public returns (uint) {\n        contractBalanceOfEther = address(this).balance;\n        emit Balance(contractBalanceOfEther);\n        return contractBalanceOfEther;\n    }\n\n    function sendCoin(address receiver, uint amount) public returns(bool sufficient) {\n        if (balances[msg.sender] < amount) return false;\n        balances[msg.sender] -= amount;\n        balances[receiver] += amount;\n        emit Transfer(msg.sender, receiver, amount);\n        return true;\n    }\n\n    function getBalance(address addr) public view returns(uint){\n        return getBalance(addr);\n    }\n\n\n\n\n    /* Storage Functions */\n    function getContractStorageBalance() public view returns (uint) {\n        return contractStorageBalance;\n    }\n\n    function setContractStorageBalance(uint x) public {\n        contractStorageBalance = x;\n    }\n\n    function incrementContractStorageBalance(uint x) public {\n        contractStorageBalance = x;\n    }\n\n\n\n\n\n\n    /* YEARN FUNCTIONS */\n    function save(uint amount) external {\n        // No need for admin check here.\n        dai.transferFrom(msg.sender, address(this), amount);    // from sender to this wallet\n        _save(amount);\n    }\n\n    function _save(uint amount) internal {\n        dai.approve(address(yDai), amount);     //ERC20 function -> https://docs.openzeppelin.com/contracts/4.x/api/token/erc20#IERC20-approve-address-uint256-\n        yDai.deposit(amount);\n    }\n\n    function spend(uint amount, address recipient) external {\n        require(msg.sender == admin, 'only admin');\n        uint balanceShares = yDai.balanceOf(address(this));     //get the balance in yDAi\n        yDai.withdraw(balanceShares);                           //withdraw from Yearn\n        dai.transfer(recipient, amount);                        //recipient is us but can be anyone\n\n        uint balanceDai = dai.balanceOf(address(this));         //re-invest any extra balance\n        if (balanceDai > 0 ) {\n            _save(balanceDai);\n        }\n    }\n\n    // Renamed to avoid conflict with balance variable when calling\n    function balanceOfDai() public view returns(uint) {\n        uint price = yDai.getPricePerFullShare();\n        uint balanceShares = yDai.balanceOf(address(this));\n        return balanceShares * price;\n    }\n\n\n}",
  "sourcePath": "/Users/thomasmoran/Hacking/Ethereum/Fleming/FlemingMVP/contracts/Wallet.sol",
  "compiler": {
    "name": "solc",
    "version": "0.8.0+commit.c7dfd78e.Emscripten.clang"
  },
  "schemaVersion": "3.4.4",
  "updatedAt": "2022-01-15T14:39:59.342Z",
  "devdoc": {
    "kind": "dev",
    "methods": {},
    "version": 1
  },
  "userdoc": {
    "kind": "user",
    "methods": {},
    "version": 1
  }
}